:020000040800F2
:10000000600E002049090008490300084B0300085E
:100010004F030008530300085703000800000000C6
:100020000000000000000000000000005B0300086A
:100030005D030008000000005F0300086103000882
:1000400063090008630900086309000863090008E0
:1000500063090008630900086309000863090008D0
:1000600063090008630900086309000863090008C0
:1000700063090008630900086309000863090008B0
:1000800063090008630900086309000863090008A0
:100090006309000863090008630900086309000890
:1000A0006309000863090008630900086309000880
:1000B0006309000863090008630900086309000870
:1000C0006309000863090008630900086309000860
:1000D00063090008E70800086309000863090008CD
:1000E0006309000863090008630900086309000840
:1000F0006309000863090008630900086309000830
:10010000630900086309000863090008630900081F
:10011000630900086309000863090008630900080F
:1001200063090008630900086309000863090008FF
:1001300063090008630900086309000863090008EF
:1001400063090008630900086309000863090008DF
:1001500063090008630900086309000863090008CF
:1001600063090008630900086309000863090008BF
:1001700063090008630900086309000863090008AF
:10018000630900086309000800F002F800F03CF879
:100190000AA090E8000C82448344AAF10107DA45E2
:1001A00001D100F031F8AFF2090EBAE80F0013F0F8
:1001B000010F18BFFB1A43F001031847781E000017
:1001C000981E0000103A24BF78C878C1FAD85207A8
:1001D00024BF30C830C144BF04680C6070470000C1
:1001E0000023002400250026103A28BF78C1FBD840
:1001F000520728BF30C148BF0B6070471FB501F0E0
:1002000013FF1FBD10B510BD01F0DBFE1146FFF757
:10021000F5FF00F009F801F0F9FE03B4FFF7F2FF73
:1002200003BC00F0FDFA000008B54FF4A06000F038
:10023000ABFBA82000F072FA4FF4E13000F0FDFAB9
:1002400000F098F900F0B6F94FF47A70374B384A5D
:1002500000210090374800F009FA65E03648008830
:1002600000F4004000284FD0002033490880334973
:10027000086001203249C1F8A40201212C484C3801
:1002800000F043FC052000F0D2F9012128484C3849
:1002900000F01BFD4FF47A71264800F026FA0A2080
:1002A00000F09EFA002122484C3800F02EFC00217C
:1002B000204801F089FD002422E01C4830F8141089
:1002C000204801F095FB012000F08AFA00BF402190
:1002D0001C4801F03DFC0028F9D0144830F8140007
:1002E0000112184801F084FB00BF4021154801F0BD
:1002F0002FFC0028F9D0012000F072FA601C84B2B3
:10030000B4F57A7F10DAD8E701200C4908600C4870
:10031000D0F8A40208B9012000E000200749091F15
:100320000860C82000F05CFA98E700003000002068
:100330004C200140106402401C000020A882424270
:100340000080424200100140704700BFFEE700BF3E
:10035000FEE700BFFEE700BFFEE77047704770474B
:10036000704700000CB500200190009076480068AE
:1003700040F480307449086000BF7348006800F49E
:10038000003000900198401C0190009818B9019825
:10039000B0F5A04FF1D16C48006800F4003010B106
:1003A0000120009001E0002000900098012846D133
:1003B00065484030006840F0805063494031086033
:1003C0006248006840F44040604908605E48083078
:1003D00000685D49083108600846006840F4004044
:1003E00008600846006840F4A05008605848091F9B
:1003F0000860081F006840F08070091F086000BF97
:100400005148006800F000700028F9D040F20570F3
:10041000504908604C480830006820F003004A4901
:10042000083108600846006840F00200086000BF1C
:1004300045480830006800F00C000828F8D10CBDD1
:1004400010B54548006840F47000434908603E48D4
:10045000006840F001003C49086000203A4908313A
:100460000860394800683D490840374908603C4801
:10047000091D0860081F006820F48020091F08601B
:10048000002031490C310860FFF76CFF4FF000602D
:1004900031498039086010BD70B500200022022368
:1004A00000240221284D08352D6805F00C0020B1EC
:1004B000042806D0082834D107E02A4D2A4E35609A
:1004C00033E02A4D284E35602FE01F4D2D1D2D683D
:1004D000C5F380541C4D2D1D2D6805F03F0154B10E
:1004E000224DB5FBF1F5184E361D3668C6F3881659
:1004F00005FB06F209E01B4DB5FBF1F5124E361D6A
:100500003668C6F3881605FB06F20F4D2D1D2D68C3
:10051000C5F301456D1C6B00B2FBF3F5124E35605F
:1005200003E0104D104E356000BF00BF064D08358A
:100530002D68C5F303150E4E705D0B4D2D68C5403B
:10054000094E356070BD0000003802400070004068
:1005500008544007003C024088ED00E0FFFFF6FE33
:10056000103000240024F4000000002000127A0063
:10057000040000201CB50121202000F0CBFF4FF427
:10058000C060009001208DF8040000208DF8060066
:1005900003208DF8050001208DF807006946044806
:1005A00000F01AFD4FF4C061014800F091FD1CBD40
:1005B0000014024000B58DB00121084600F0AAFFEA
:1005C0000121080201F000F820200B9003208DF893
:1005D000300000208DF833000BA9224800F0FCFC0D
:1005E0000121080201F045F800214FF4807001F06C
:1005F00040F8002007900A904FF480400990800056
:10060000089007A800F06AFA002001908DF8080011
:1006100001208DF8090000200390059001208DF83D
:10062000180001A9104800F02AFA0DB000BD10B55D
:1006300004460023012221460B4800F0A6FA0121BE
:10064000094800F04DFB084800F0FBFA00BF02210A
:10065000054800F017FC0028F9D0034800F02DFBF6
:1006600010BD000000000240002001402DE9F041D3
:1006700090B004460D4617461E46DDF858802648C1
:10068000844204D90121880500F044FF03E00121E0
:10069000480500F03FFF204601F0BAFA00BF2046AF
:1006A00001F0DFFB0028FAD1019502970396049030
:1006B000CDF8148006904FF48060079040000890B9
:1006C0008000099000200A904FF480300B900020A9
:1006D0000C9003200D9000200E900F9001A9204651
:1006E00001F038FB10B0BDE8F08170B504460D464E
:1006F0000021204601F068FB00BF204601F0B1FB5D
:100700000028FAD12946204601F07FFB012120462E
:1007100001F05AFB70BD00000064024010B50446B1
:100720006FF0040000F082F9E11704EB5171C1F39E
:10073000C701394A11701046007800EB4001C1EB47
:10074000C0104FF6FF7101EAC0003449088010BDA7
:100750000146314A12784A434FF0E0235A610022A1
:100760009A611A46126942F001021A6100BF4FF005
:10077000E022106900F001021AB100F48032002A70
:10078000F5D04FF0E022126922F001024FF0E02391
:100790001A6100229A6170470146204A12884A4332
:1007A0004FF0E0235A6100229A611A46126942F022
:1007B00001021A6100BF4FF0E022106900F001024F
:1007C0001AB100F48032002AF5D04FF0E02212690D
:1007D00022F001024FF0E0231A6100229A61704773
:1007E00070B504464FF4077094FBF0F0C6B24FF4B6
:1007F000077094FBF0F100FB114085B205E04FF467
:100800000770FFF7C9FF701EC6B2002EF7D115B1F1
:100810002846FFF7C1FF70BD14000020160000201D
:1008200000BF704700BF454A128802F04002002A0C
:10083000F9D0C2B2414B9A80704710B588B00446D7
:100840000121084600F066FE0121102000F0BCFEE8
:10085000072209213A4800F04AFC07220A213848B9
:1008600000F045FC4FF4C060069002208DF81C009B
:100870008DF81D0000208DF81E0001208DF81F004E
:1008800006A92F4800F0A8FB02940020ADF80C0048
:10089000ADF80E00ADF81000ADF814000C20ADF866
:1008A000120002A9254800F0F0FF0121234801F0C1
:1008B00074F84021214801F058F9012240F22551F5
:1008C0001E4801F020F925208DF8040003208DF842
:1008D00005008DF8060001208DF8070001A800F042
:1008E00058F808B010BD10B540F22551134801F07A
:1008F00045F910B3114801F07FF8C4B211480088DF
:1009000000F40040C8B90F48008800F4804040B9A6
:10091000502C12D10B48008840F4804009490880CF
:100920000BE0512C06D10748008840F400400549EF
:10093000088002E000200349088010BD001001403B
:10094000000002401C000020094880470948004779
:10095000FEE7FEE7FEE7FEE7FEE7FEE7FEE7FEE76F
:10096000FEE7FEE704480549054A064B70470000CC
:10097000410400088901000860080020600E002082
:10098000600A0020600A002032490143324A1160A7
:10099000704770B5002100230F22C4781CB32E4C81
:1009A000246804F4E064C4F5E064C4F30721C1F1F1
:1009B0000404E3B20A4144789C40E1B284781440D4
:1009C00021430C07210E254C05786155047804F06D
:1009D0001F050124AC4005786D11AD0005F1E0253F
:1009E000C5F8004109E0047804F01F050124AC407B
:1009F0001B4D0678761145F8264070BD194A0A400D
:100A00000243154B1B1F1A60704739B1124A121D61
:100A100012680243104B1B1D1A6006E00E4A121D9D
:100A2000126882430C4B1B1D1A607047042808D1C2
:100A30004FF0E021096941F004014FF0E02211611B
:100A400007E04FF0E021096921F004014FF0E022B6
:100A5000116170470000FA050CED00E000E400E0D1
:100A600080E100E080FFFF1F10B50121080200F0C7
:100A700000FE00214FF4807000F0FBFD10BD30B58A
:100A80000246002000235068F84C20400D790C6885
:100A900044EA0524204350609068F54C2040D1E999
:100AA00003542C438D682C434D7944EA450420437C
:100AB0009060D06A20F470000C7D641EE4B2234381
:100AC00040EA0350D06230BD0021016001714171E4
:100AD0008160C16001610121017570470021E54A13
:100AE0001168E54A1140D0E900231A4383681A438C
:100AF000C3681A431143E14AC2F804137047002146
:100B0000016041608160C160704721B1826842F03C
:100B10000102826003E0826822F001028260704775
:100B20000A4600214168D64B194011434160704785
:100B30004162826270470A460021416821F01F012C
:100B400011434160704738B1CA49096841F4000156
:100B5000CA4AC2F8041306E0C649096821F4000134
:100B6000C64AC2F80413704738B1C249096841F453
:100B70008001C24AC2F8041306E0BE49096821F4A4
:100B80008001BE4AC2F804137047F0B504460D4612
:100B900000200021092D11DDE068A5F10A0606EB11
:100BA0004607072606FA07F18843A5F10A0606EB71
:100BB000460603FA06F10843E0600CE0206905EB05
:100BC0004507072606FA07F1884305EB450603FAB1
:100BD00006F108432061072A0FDA606B561E06EB08
:100BE00086071F2606FA07F18843561E06EB86067F
:100BF00005FA06F10843606322E00D2A0FDA206B44
:100C0000D61F06EB86071F2606FA07F18843D61F74
:100C100006EB860605FA06F10843206310E0E06A59
:100C2000A2F10D0606EB86071F2606FA07F1884398
:100C3000A2F10D0606EB860605FA06F10843E0620E
:100C4000F0BD816841F0804181607047014600201D
:100C50008A6802F080420AB1012000E0002070475B
:100C600021B1826842F48062826003E0826822F4EB
:100C700080628260704721B1826842F00202826025
:100C800003E0826822F002028260704710B50A46D3
:100C900000210023416821F46041531E41EA4331A1
:100CA000416010BD21B1426842F40062426003E03D
:100CB000426822F40062426070470146C86C80B20C
:100CC00070476C48001D0068704721B1826842F48B
:100CD0008072826003E0826822F4807282607047D2
:100CE00021B1826842F40072826003E0826822F4DB
:100CF00000728260704738B15E49096841F4005162
:100D00005E4AC2F8041306E05A49096821F400510A
:100D10005A4AC2F804137047F0B50446154600203D
:100D200000220026092911DDE068A1F10A0707EB7E
:100D3000470C072707FA0CF29043A1F10A0707EBCB
:100D4000470703FA07F21043E0600CE0206901EB6B
:100D5000410C072707FA0CF2904301EB410703FA15
:100D600007F210432061A06BC0F30156EF1C06F19F
:100D7000010CA7EB0C0707EB870C1F2707FA0CF2F7
:100D80009043EF1C06F1010CA7EB0C0707EB87075C
:100D900001FA07F21043A063F0BD10B50A46002126
:100DA0000023816B21F44011531E41EA03518163FA
:100DB00010BD08B5002300930090009B0B440093E6
:100DC000009B1A6008BD0A460021816821F4702149
:100DD0001143816070470A460021816821F4401167
:100DE000114381607047816841F4800181607047E0
:100DF000014600208A6802F480020AB1012000E066
:100E00000020704721B1426842F48062426003E0F2
:100E1000426822F480624260704721B1426842F425
:100E20008052426003E0426822F480524260704780
:100E300008B5024600200090009201F12800009BB6
:100E4000184400900098006880B208BD10B50B46A9
:100E50000021D9B2012404FA01F11AB144680C430B
:100E6000446002E044688C43446010BDFFFEFFFC18
:100E7000FDF7FFC004230140E030FCFF00200140EB
:100E8000FFFD3FFF0246002013680B400BB101201D
:100E900000E000207047CA430260704770B5024608
:100EA0000020002300240B12556801268E4005EA1D
:100EB000060415681D4015B10CB1012000E00020AA
:100EC00070BD00220A12D3430360704710B5044678
:100ED0009848844208D10121084600F086FB002191
:100EE000012000F082FB76E09348844208D1012182
:100EF000022000F07AFB0021022000F076FB6AE07D
:100F00008E48844208D10121042000F06EFB0021AC
:100F1000042000F06AFB5EE08948844208D1012188
:100F2000082000F062FB0021082000F05EFB52E088
:100F30008448844208D10121102000F056FB002192
:100F4000102000F052FB46E07F48844208D1012186
:100F5000202000F04AFB0021202000F046FB3AE070
:100F60007A48844208D10121402000F03EFB002154
:100F7000402000F03AFB2EE07548844208D1012160
:100F8000802000F032FB0021802000F02EFB22E0C8
:100F90007048844208D10121801500F026FB002111
:100FA000A01500F022FB16E06B48844208D1012115
:100FB000401500F01AFB0021601500F016FB0AE056
:100FC0006648844207D10121001500F00EFB002184
:100FD000201500F00AFB10BDF0B50A4600210023E1
:100FE000002400BF3DE0012505FA01F3156805EA7C
:100FF00003049C4234D105684F000326BE40B5432C
:10100000056015794E00B5400668354305601579D1
:10101000012D02D01579022D16D185684F000326C7
:10102000BE40B543856055794E00B540866835436E
:101030008560456801268E40B543456045689679D0
:101040008E40B6B235434560C5684F000326BE40AA
:10105000B543C560D5794E00B540C6683543C56017
:10106000491C1029BFD3F0BD4FF6FF71016000216C
:10107000017141718171C171704708B54FF48032BF
:101080000092009A0A430092009AC261C161009ADC
:10109000C261C2690092C269009208BD0246002086
:1010A00013690B400BB1012000E00020704701469E
:1010B000086980B270470246002053690B400BB1AB
:1010C000012000E0002070470146486980B2704767
:1010D00001837047418370470AB1018300E0418377
:1010E00070474161704742694A4042617047F0B5BC
:1010F000002300244D07ED0E02FA05F3CE1000F197
:10110000200555F826504E07F70E0F26BE40B54372
:10111000CF1000F1200646F82750CE1000F1200530
:1011200055F8265045EA0304CE1000F1200545F895
:101130002640F0BD000002400004024000080240CA
:10114000000C02400010024000140240001802404F
:10115000001C0240002002400024024000280240FF
:10116000F948006840F00100F74908600020F6499E
:1011700008310860F4480068F4490840F249086002
:10118000F348091D0860F348EF4984310860F048CE
:101190001038091D0860EC48006820F48020EA49F6
:1011A00008600020E8490C310860E7498C3108608C
:1011B00070470021E44A921C117011460870704774
:1011C00010B501460022002300204A11012A02D155
:1011D000DD4C236808E0022A03D1DB4C703423681D
:1011E00002E0D94C7434236801F01F0201249440BA
:1011F0001C400CB1012000E0002010BD38B50020DB
:1012000000900024002500BF3120FFF7D9FF0546DC
:101210000098401C00900098B0F5A04F01D0002D20
:10122000F2D03120FFF7CCFF08B1012400E0002408
:10123000204638BD01460020C34A106820F0F8005F
:1012400040EAC10010607047C34908607047002140
:10125000BD4A703211701170012802D004280AD1E1
:1012600004E00121B84A7032117005E00521B64A48
:101270007032117000E000BF00BF7047B7490860CE
:10128000704770B5049C41EA82150126C6EB5306EF
:1012900045EA0645054345EA0465AB4E361D356013
:1012A00070BDAD4908667047820142EA0172A64BE3
:1012B00084331A607047A8498866704710B5830167
:1012C00043EA016343EA02739F4C8834236010BDF4
:1012D000A14908677047A049C864704702460020CA
:1012E000994B0833186820F0EC6042EA0103184378
:1012F000954B08331860704702460020924B083324
:10130000186820F0784042EA010318438E4B0833F6
:1013100018607047014600208B4A0832106820F0A0
:10132000030008431060704787480830006800F0E9
:101330000C00704701460020834A0832106820F0F4
:10134000F000084310607047014600207E4A0832D2
:10135000106820F4E05008431060704701460020F8
:10136000794A0832106820F4604040EAC1001060F9
:101370007047F0B500210022002402250026022338
:10138000714F08373F6807F00C0121B1042905D0DF
:10139000082937D105E0724F076036E0714F0760CA
:1013A00033E0694F3F1D3F68C7F38056664F3F1DCE
:1013B0003F6807F03F036EB16A4FB7FBF3F7DFF802
:1013C00088C10CF1040CDCF800C0CCF3881C07FBCE
:1013D0000CF40CE0624FB7FBF3F7DFF86CC10CF1D3
:1013E000040CDCF800C0CCF3881C07FB0CF4564F4F
:1013F0003F1D3F68C7F301477F1C7D00B4FBF5F735
:10140000076002E0564F076000BF00BF4E4F08372D
:101410003F6807F0F0010909534F7A5C0768D7402D
:101420004760494F08373F6807F4E051890A4E4F3B
:101430007A5C4768D7408760434F08373F6807F4B6
:101440006041490B484F7A5C4768D740C760F0BDA0
:10145000002100F44072B2F5407F0AD13A4A0832C6
:10146000116821F4F811414A02401143364A08320A
:101470001160354A70321268C0F30B031A43324BC5
:1014800070331A60704735494439086070473349F2
:1014900040390860704736490860704701460020AF
:1014A000294A8C32106820F01F004A1E1043264A39
:1014B0008C321060704701460020234A8C3210683D
:1014C00020F4F8504A1E40EA02201F4A8C32106075
:1014D0007047014600201C4A8C32106820F44010EE
:1014E00008431060704701460020174A8C3210688C
:1014F00020F4400008431060704701460020124A63
:101500008C32106820F4403008431060704719494D
:101510000860704739B10C4A3032126802430A4BF6
:1015200030331A6006E0084A303212688243064BB4
:1015300030331A607047F9B1034A343212680243FB
:10154000014B34331A601CE000380240FFFFF6EA1A
:10155000103000240030002000004742800E474237
:101560000024F40000127A001E000020FFFCFF0F90
:101570005C014742E01147428F4A126882438E4B1A
:101580001A60704739B18C4A121D126802438A4BA7
:101590001B1D1A6006E0884A121D12688243864BA2
:1015A0001B1D1A60704739B1834A0C32126802431E
:1015B000814B0C331A6006E07F4A0C32126882437A
:1015C0007D4B0C331A60704739B17B4A1032126878
:1015D0000243794B10331A6006E0774A10321268E2
:1015E0008243754B10331A60704739B1724A243AFE
:1015F00012680243704B243B1A6006E06E4A243A9C
:10160000126882436C4B243B1A60704739B16A4AB6
:10161000203A12680243684B203B1A6006E0664A93
:10162000203A12688243644B203B1A60704739B1FC
:10163000614A1C3A126802435F4B1C3B1A6006E089
:101640005D4A1C3A126882435B4B1C3B1A60704730
:1016500039B1594A143A12680243574B143B1A6085
:1016600006E0554A143A12688243534B143B1A6001
:10167000704739B1504A103A126802434E4B103B42
:101680001A6006E04C4A103A126882434A4B103BFB
:101690001A60704739B1484A1C3212680243464BFF
:1016A0001C331A6006E0444A1C3212688243424BE3
:1016B0001C331A60704739B13F4A20321268024326
:1016C0003D4B20331A6006E03B4A203212688243C9
:1016D000394B20331A60704739B1374A24321268C7
:1016E0000243354B24331A6006E0334A2432126831
:1016F0008243314B24331A60704739B12E4A2C3261
:10170000126802432C4B2C331A6006E02A4A2C3212
:1017100012688243284B2C331A60704739B1264A2D
:10172000303212680243244B30331A6006E0224AFA
:10173000303212688243204B30331A6070470128E0
:1017400008D11D493C31096841F008011A4A3C3270
:10175000116007E018493C31096821F00801164A78
:101760003C321160704739B1134A273A127802436C
:10177000114B273B1A7006E00F4A273A1278824332
:101780000D4B273B1A7070470B484030006840F003
:101790008070094940310860704701460020064AC0
:1017A000283A12680A400AB1012000E00020704780
:1017B00001492639087070473438024010B5044694
:1017C000FA48844208D101211020FFF752FF00217E
:1017D0001020FFF74EFF57E0F548844209D1012160
:1017E0004804FFF735FF00214FF40030FFF730FFCA
:1017F0004AE0F048844209D101218804FFF728FF1C
:1018000000214FF48020FFF723FF3DE0EA488442A7
:1018100009D10121C804FFF71BFF00214FF400206C
:10182000FFF716FF30E0E548844209D101210805A1
:10183000FFF70EFF00214FF48010FFF709FF23E0B0
:10184000DF48844208D101212020FFF712FF002148
:101850002020FFF70EFF17E0DA48844209D101216A
:101860008807FFF7F5FE00214FF08040FFF7F0FEFC
:101870000AE0D548844207D101214005FFF7E8FE80
:1018800000216005FFF7E4FE10BD2DE9FF47054686
:101890000E460024A14600BFA046B08900B100BF9B
:1018A0002C8A24F44054F08804432C82AC8941F201
:1018B0000C608443B088318908437189084304432C
:1018C000AC81AC8A24F44074B0890443AC8268468D
:1018D000FFF74FFDB548854202D0B948854202D195
:1018E000DDF80C9001E0DDF80890A88900F40040D4
:1018F00040B109EBC90000EB091031684900B0FBA9
:10190000F1F707E009EBC90000EB09103168890025
:10191000B0FBF1F76420B7FBF0F00401200964216B
:1019200001FB1078A88900F4004040B1322000EBA0
:10193000C800B0FBF1F000F00700044308E03220DB
:1019400000EB08106421B0FBF1F000F00F0004433D
:101950002C81BDE8FF874FF4165101600021818082
:10196000C18001810C21418100218181704710B526
:1019700002460020108A20F470600B884C882343B4
:101980008C882343CC8823431843108210BD002148
:10199000018041808180C180704721B1828942F4F9
:1019A0000052828104E082894DF6FF731A408281E1
:1019B0007047028B02F47F420283028B0A43028348
:1019C000704721B1828942F40042828103E082891A
:1019D000C2F30E028281704721B1828A42F4006212
:1019E000828204E0828A4FF2FF731A40828270473B
:1019F000C1F308028280704701468888C0F308005E
:101A00007047028A4FF6F0731A400282028A0A4334
:101A10000282704721B1828942F00202828104E091
:101A200082894FF6FD731A408281704782894FF296
:101A3000FF731A40828182890A4382817047028A39
:101A40004FF6DF731A400282028A0A43028270470D
:101A500021B1028A42F48042028204E0028A4BF6FB
:101A6000FF731A4002827047818941F00101818130
:101A7000704721B1828A42F00802828204E0828AA1
:101A80004FF6F7731A4082827047028BD2B20283FC
:101A9000028B42EA01220283704721B1828A42F01E
:101AA0002002828204E0828A4FF6DF731A4082822B
:101AB000704721B1828A42F01002828204E0828A59
:101AC0004FF6EF731A4082827047828A4FF6FB739B
:101AD0001A408282828A0A438282704721B1828AB6
:101AE00042F00202828204E0828A4FF6FD731A40BD
:101AF000828270471AB1838A0B43838202E0838A11
:101B00008B4383827047F0B50346002400260025EE
:101B1000002040F66A17B94200D100BF1846C1F351
:101B2000421401F01F06012707FA06F5012C01D126
:101B30000C3004E0022C01D1103000E014301AB156
:101B400007682F43076002E00768AF430760F0BDF6
:101B500002460020B1F5007F00D100BF13880B4082
:101B60000BB1012000E00020704701F40072B2F5D3
:101B7000007F00D100BFCA430280704770B50246A3
:101B8000002400230025002040F66A16B14200D14F
:101B900000BFC1F3421501F01F03012606FA03F34B
:101BA000012D13D19689334017E000000010014049
:101BB0000044004000480040004C004000500040FD
:101BC0000014014000780040007C0040022D02D14A
:101BD000168A334001E0968A33400C12012606FA39
:101BE00004F41688344013B10CB1012000E0002049
:101BF00070BD10B50022002340F66A14A14200D146
:101C000000BF0A1201249440A3B2DC43048010BD3B
:101C1000016821F0010101600021016041608160E3
:101C2000C160016121214161DB49884204D13D212C
:101C3000D94A103A91608CE0D7491831884205D1D1
:101C40004FF47461D44A103A916082E0D249303145
:101C5000884205D14FF47411CF4A103A916078E070
:101C6000CD494831884205D14FF07461CA4A103AD3
:101C700091606EE0C8496031884204D1C749C64AC4
:101C8000103AD16065E0C4497831884204D1C44932
:101C9000C14A103AD1605CE0BF499031884204D11A
:101CA000C049BD4A103AD16053E0BB49A8318842CF
:101CB00005D14FF03D51B84A103AD16049E0BA49D8
:101CC000884204D13D21B84A083A116041E0B64942
:101CD0001831884205D14FF47461B34A083A116053
:101CE00037E0B1493031884205D14FF47411AE4A22
:101CF000083A11602DE0AC494831884205D14FF0D7
:101D00007461A94A083A116023E0A749603188420A
:101D100004D1A249A44A121F11601AE0A2497831E5
:101D2000884204D19E49A04A121F116011E09E49C9
:101D30009031884204D19B499B4A121F116008E0F0
:101D40009949A831884204D14FF03D51964A121F5B
:101D50001160704710B500220268944B1A40CC689D
:101D60000B6823434C6923438C692343CC69234389
:101D70000C6A23434C6A23438C6A23434C6B2343F2
:101D80008C6B23431A430260426922F00702D1E9B7
:101D90000B3423431A4342610B6943604B688360F1
:101DA0008B68C36010BD0021016041608160C1602B
:101DB000016141618161C161016241628162C1620F
:101DC000016341638163704721B1026842F00102FF
:101DD000026003E0026822F001020260704721B154
:101DE000026842F40042026003E0026822F400420A
:101DF0000260704721B1026842F02002026003E0F5
:101E0000026822F02002026070474160704701467C
:101E1000486880B2704722B1036843F4002303602E
:101E200003E0036823F4002303600161704721B1DC
:101E3000026842F48022026003E0026822F48022F9
:101E4000026070470AB1016100E0C160704701465D
:101E500000200A6802F400220AB1012000E00020FC
:101E60007047014600200A6802F001020AB1012011
:101E700000E000207047014600204A6902F0380067
:101E8000704730B503460A4600200024464DAB4259
:101E900002D24149103901E04349103902F000559E
:101EA0000DB14C6800E00C68414D2C4004EA02057D
:101EB0000DB1012000E0002030BD02463A4B9A42AD
:101EC00002D23548103801E03748103801F000538D
:101ED0001BB1374B0B40C36002E0354B0B408360B6
:101EE000704710B501F080034BB122B1436943F054
:101EF0008003436103E0436923F080034361802949
:101F00000BD02AB1036801F01E042343036004E0F0
:101F1000036801F01E04A343036010BD70B50246C0
:101F2000002000240025204EB24202D21A4B103B62
:101F300001E01D4B103B1F4E0E4036B11E2606EA37
:101F4000D124166806EA040502E0566906F0800509
:101F500001F000560EB15C6800E01C68144E34407D
:101F600004EA010616B10DB1012000E0002070BDA9
:101F700002460D4B9A4202D20748103801E00A4847
:101F8000103801F000531BB1094B0B40C36002E055
:101F9000074B0B4083607047106002403D000020FB
:101FA000400F002000003D20106402403F801CF0E4
:101FB0007D0F7D0F3C0F3C0F704770477047704797
:101FC0007047754600F02CF8AE460500694653464A
:101FD00020F00700854618B020B5FEF7C3FCBDE829
:101FE00020404FF000064FF000074FF000084FF080
:101FF000000B21F00701AC46ACE8C009ACE8C00911
:10200000ACE8C009ACE8C0098D46704710B504467D
:10201000AFF300802046BDE81040FEF7FEB8000098
:1020200000487047000800204FF04070E1EE100AB1
:10203000704700005420000800000020300000001D
:10204000C40100088420000830000020300E000089
:10205000E0010008007A030A000000000000000010
:102060000102030406070809000000000000000048
:10207000000000000000010203040102030406073F
:04208000080900004B
:040000050800018965
:00000001FF
